S01C0000536E616B655F412D3130383842535F6B6D6174652E7372656372
S11300000C9434000C9451000C9451000C94510045
S11300100C9451000C9451000C9451000C94510018
S11300200C9451000C9497000C9451000C945100C2
S11300300C9451000C9451000C9451000C945100F8
S11300400C9451000C9451000C9451000C945100E8
S11300500C9451000C9451000C9451000C945100D8
S11300600C9451000C94510011241FBECFEFD8E022
S1130070DEBFCDBF11E0A0E0B1E0E6E8F1E002C0F0
S113008005900D92A030B107D9F721E0A0E0B1E0CE
S113009001C01D92A130B207E1F70E9461000C94E7
S11300A0C1000C9400008AB18C638AB9089510923F
S11300B0B00085E08093B10081E080937000789473
S11300C008950E9453000E945700FFCF90E026C07D
S11300D0482F50E0092E02C0559547950A94E2F73F
S11300E05BB1537F5BB95BB1242F217030E0F90120
S11300F0EE0FFF1FEE0FFF1FB901660F771F660F8C
S1130100771F660F771F4E2F462B452B4BB94BB1EC
S11301104F7D4BB94BB140624BB99F5F9830C0F2F1
S11301208BB18F7E8BB98BB180618BB908951F928F
S11301300F920FB60F9211242F933F934F935F9317
S11301406F937F938F939F93AF93BF93EF93FF939B
S11301508091000181508093000181E00E9466003B
S1130160FF91EF91BF91AF919F918F917F916F918B
S11301705F914F913F912F910F900FBE0F901F9061
S10901801895F894FFCF6E
S9030000FC
